:020000021000EC
:10F000000C9472F80C9491F80C9491F80C9491F87B
:10F010000C9491F80C9491F80C9491F80C9491F84C
:10F020000C9491F80C9491F80C9491F80C9491F83C
:10F030000C9491F80C9491F80C9491F80C9491F82C
:10F040000C9491F80C9491F80C9491F80C9491F81C
:10F050000C9491F80C9491F80C9491F80C9491F80C
:10F060000C9491F80C9491F80C9491F80C9491F8FC
:10F070000C9491F80C9491F80C9491F80C9491F8EC
:10F080000C9491F80C9491F80C9491F80C9491F8DC
:10F090000C9491F80C9491F80C9491F80C9491F8CC
:10F0A0000C9491F80C9491F80C9491F80C9491F8BC
:10F0B0000C9491F80C9491F80C9491F80C9491F8AC
:10F0C0000C9491F80C9491F80C9491F80C9491F89C
:10F0D0000C9491F80C9491F80C9491F80C9491F88C
:10F0E0000C9491F811241FBECFEFD1E2DEBFCDBF4B
:10F0F00012E0A0E0B2E0EEE7F9EF01E00BBF02C0E2
:10F1000007900D92A833B107D9F713E0A8E3B2E056
:10F1100001C01D92A334B107E1F70E94AEF90C942F
:10F12000BDFC0C9400F8982F80913802813019F0C2
:10F13000823041F008958091C00085FFFCCF90930C
:10F14000C60008958091C80085FFFCCF9093CE0043
:10F1500008951F93982F9595959595959595905D04
:10F160008F708A3054F4182F105D892F0E9493F805
:10F17000812F0E9493F81F910895182F195A892FF3
:10F180000E9493F8812F0E9493F81F910895EF92A7
:10F19000FF920F931F9380913802813069F1823082
:10F1A00031F080E01F910F91FF90EF900895EE24D1
:10F1B000FF2487018091C80087FD17C00894E11CD7
:10F1C000F11C011D111D81E4E81682E4F8068FE0B0
:10F1D000080780E0180770F3E0913A02F0913B02D3
:10F1E00009958091C80087FFE9CF8091CE001F91DB
:10F1F0000F91FF90EF900895EE24FF2487018091F6
:10F20000C00087FD17C00894E11CF11C011D111DF1
:10F2100081E4E81682E4F8068FE0080780E018072A
:10F2200070F3E0913A02F0913B0209958091C000A1
:10F2300087FFE9CF8091C6001F910F91FF90EF905B
:10F2400008951F930E94C7F8182F0E9493F8113653
:10F2500034F410330CF01053812F1F91089517557B
:10F26000812F1F9108951F930E9421F9182F0E944A
:10F2700021F91295107F810F1F910895982F2091E9
:10F280003802992339F0213031F0223061F0915069
:10F290009923C9F708958091C00087FFFCCF809122
:10F2A000C6009150F5CF8091C80087FFFCCF8091B8
:10F2B000CE009150EDCF1F93182F0E94C7F88032D7
:10F2C00081F0809139028F5F80933902853011F08F
:10F2D0001F910895E0913A02F0913B0209951F9128
:10F2E000089584E10E9493F8812F0E9493F880E1B1
:10F2F0000E9493F81F9108950E94C7F8803271F020
:10F30000809139028F5F80933902853009F008952A
:10F31000E0913A02F0913B020995089584E10E9440
:10F3200093F880E10E9493F8089540E951E0882322
:10F33000A1F0299A28EE33E0FA013197F1F7215034
:10F340003040D1F7299828EE33E0FA013197F1F7F0
:10F3500021503040D1F7815061F70895CF92DF926C
:10F36000EF92FF920F931F93CF93DF93000081E002
:10F370008093380280E18093C4001092C5001092FF
:10F38000C00086E08093C20088E18093C100689845
:10F39000709A219A81E00E9495F9FF24F3940E94CB
:10F3A000C7F88033C9F18133D1F1803409F457C0F3
:10F3B000813409F45DC0823409F46CC0853409F4E9
:10F3C0006FC0803549F1823539F1813529F18535B4
:10F3D00009F46CC0863509F474C0843609F47DC024
:10F3E000843709F4E7C0853709F44BC1863709F43F
:10F3F0004DC0813209F45EC1809139028F5F8093E4
:10F400003902853061F6E0913A02F0913B020995AC
:10F410000E94C7F8803339F60E947CF9C0CF0E9461
:10F42000C7F8803249F784E10E9493F881E40E9492
:10F4300093F886E50E9493F882E50E9493F880E2B3
:10F440000E9493F889E40E9493F883E50E9493F860
:10F4500080E50E9493F880E10E9493F8A0CF0E947B
:10F46000C7F88638C8F20E94C7F80E947CF997CF87
:10F470000E94C7F8803809F499C0813809F4FDC0AA
:10F48000823809F413C1883909F48CC080E00E94E5
:10F490005BF985CF84E10E943EF90E947CF97FCF21
:10F4A00085E00E943EF90E947CF979CF0E94C7F85E
:10F4B00080933C020E94C7F880933D020E947CF931
:10F4C0006ECF0E94C7F8803309F448C183E00E94E0
:10F4D0003EF980E00E945BF962CF0E94C7F88093FA
:10F4E0003F030E94C7F880933E03809142038E7FC2
:10F4F000809342030E94C7F8853409F440C180918B
:10F500003E0390913F03892B89F000E010E00E94B8
:10F51000C7F8F801E25CFD4F80830F5F1F4F8091B9
:10F520003E0390913F030817190788F30E94C7F81C
:10F53000803209F061CF8091420380FF32C1209177
:10F540003C0230913D02220F331F30933D02209345
:10F550003C0280913E0390913F03892BE1F000E053
:10F5600010E0F801E25CFD4FC90160810E94AFFC30
:10F5700020913C0230913D022F5F3F4F30933D027E
:10F5800020933C020F5F1F4F80913E0390913F03F9
:10F590000817190730F384E10E9493F880E10E9474
:10F5A00093F8FDCE83E00E945BF9F9CE82E00E94E1
:10F5B0005BF9F5CE0E94C7F880933F030E94C7F81D
:10F5C00080933E0320913C0230913D0237FDDDC027
:10F5D000809142038D7F80934203220F331F30932B
:10F5E0003D0220933C020E94C7F8853409F4D3C041
:10F5F000809142038E7F809342030E94C7F880323D
:10F6000009F0CDCE84E10E9493F880913E03909161
:10F610003F03892B09F446C000E010E020913C0232
:10F6200030913D0217C0F90184910E9493F8209116
:10F630003C0230913D022F5F3F4F30933D022093BB
:10F640003C020F5F1F4F80913E0390913F030817CC
:10F65000190740F58091420380FD70C081FFE3CF20
:10F66000C901A0E0B0E080509040AF4FBF4FABBFAA
:10F67000FC0187910E9493F8DACF81E00E945BF948
:10F680008ECE0E94C7F8803209F0B6CE84E10E9487
:10F6900093F88EE10E9493F887E90E9493F884E042
:10F6A0000E9493F880E10E9493F879CE80E10E9455
:10F6B0005BF975CE0E94C7F8813209F070CE0E94C6
:10F6C000C7F8813209F06BCE219A29981092400335
:10F6D00081E40E9493F8E0914003EF5FE0934003E0
:10F6E000F0E0E050FE4F8081882399F78AE00E9485
:10F6F00093F88DE00E9493F88AE30E9493F880E2E9
:10F700000E9493F80E94C7F8182F0E9493F81437AC
:10F7100009F4CBC0123709F4D4C0173709F4E7C095
:10F72000153709F4B9C0123609F4F8C01A36F1F6E3
:10F73000E0913A02F0913B020995D8CFC9010E94AD
:10F74000A7FC0E9493F820913C0230913D022F5F6C
:10F750003F4F30933D0220933C0273CF0E94C7F885
:10F760000E94C7F8182F0E94C7F8112309F48CC013
:10F77000113009F48DC084E00E945BF910CE8091B5
:10F780004203816080934203BACE8091420382603B
:10F790008093420322CF8091420381608093420391
:10F7A0002CCF80913D028823880F880B8F21809376
:10F7B00041038BBF80913C0290913D02880F991FBD
:10F7C00090933D0280933C0280913E0380FF09C0EC
:10F7D00080913E0390913F03019690933F03809365
:10F7E0003E03F894F999FECF1127E0913C02F09185
:10F7F0003D02CEE3D2E080913E0390913F03103072
:10F8000091F40091570001700130D9F303E00093A7
:10F810005700E8950091570001700130D9F301E1DC
:10F8200000935700E89509901990009157000170D6
:10F830000130D9F301E000935700E8951395103893
:10F8400098F011270091570001700130D9F305E0BD
:10F8500000935700E8950091570001700130D9F3EB
:10F8600001E100935700E8953296029709F0C7CF5F
:10F87000103011F00296E5CF112484E10E9493F834
:10F8800080E10E9493F88BCD8EE10E945BF987CDD9
:10F8900087E90E945BF983CD0E94C7F80E9493F824
:10F8A0000E94C7F80E9493F8F7CF199B05C02998CA
:10F8B00081E30E9493F81ACF299A80E30E9493F87B
:10F8C00015CF0E94C7F80E9493F80E9433F9182FB1
:10F8D0000E9433F9082F8DE30E9493F8F12EEE2455
:10F8E000F701E00FF11D80810E94A9F8FFCE0E9470
:10F8F000C7F80E9493F80E9433F9182F0E9433F939
:10F90000082F0E94C7F80E9493F80E9433F9D12E65
:10F91000CC24F601E00FF11D8083E8CE82E60E9440
:10F9200093F885E70E9493F883E70E9493F880E8B4
:10F9300085BF109274001092750080E091E1FC0187
:10F94000819180E091E13097D1F3CF01F8CFF9991F
:10F95000FECF92BD81BDF89A992780B50895262FD4
:10F96000F999FECF1FBA92BD81BD20BD0FB6F894A4
:0EF97000FA9AF99A0FBE01960895F894FFCF07
:10F97E0041546D656761424F4F54202F2041726490
:10F98E0075696E6F204D656761202D2028432920F3
:10F99E0041726475696E6F204C4C43202D203039B6
:08F9AE00303933300A0D0080EE
:040000031000F000F9
:00000001FF
