:103800005CC000008FC0000073C0000071C00000E9
:103810006FC000006DC000006BC0000069C00000F8
:1038200067C0000065C0000063C0000061C0000008
:103830005FC000005DC000005BC0000059C0000018
:1038400057C0000055C0000053C0000051C0000028
:103850004FC000004DC000004BC0000049C0000038
:1038600047C0000045C00000040309041C037700A2
:10387000770077002E00660069007300630068001F
:103880006C002E00640065000E03550053004200DA
:1038900061007300700012011001FF000008C016E3
:1038A000DC05020101020001090212000101008091
:1038B0003209040000000000000011241FBECFEFF9
:1038C000D4E0DEBFCDBF11E0A0E0B1E0E6EAFFE367
:1038D00002C005900D92A630B107D9F711E0A6E01D
:1038E000B1E001C01D92AC33B107E1F73CD159C33F
:1038F00087CFA82FB92F80E090E041E050EA609593
:1039000030E009C02D9182279795879510F0842784
:103910009527305EC8F36F5FA8F30895EADF8D93B3
:103920009D930895CF93CFB7CF93DF93C3954C9BCF
:10393000E9F74C9B0BC04C9B09C04C9B07C04C9BB0
:1039400005C04C9B03C04C9B01C089C06F93C091C4
:103950001F01DD27CA5DDE4F2F9365E54C9B03C039
:103960002F916F91E6CF0F931F934F9320E040E18B
:103970005F9309B1047104FB27F93F9350E03BE0EA
:1039800039C0147140642F77012F5F5F1EC04068FB
:1039900019B114712F7752501FC0406409B12F77AD
:1039A0000471D1F15F5F00C023C0406219B12F776D
:1039B000147191F15F5F00C025C004711027515050
:1039C00012F45D5F0000115027952C3F19B1C8F625
:1039D00014710127015027952C3FC8F642274993BF
:1039E00009B1047110274F73115027952C3FA8F689
:1039F0004695469519B1147179F001270150279524
:103A00002C3F98F66B5A60F3315009B1B0F600C004
:103A100011E01CBB002717C03B503195C31BD040A1
:103A200011E01CBB0881033CF9F00B34E9F0209154
:103A30001D011981110F1213EDCF093651F10D320D
:103A400011F0013E39F7009324013F915F914F91AE
:103A50001F910F912F916F91CCB3C0FD67CFDF9174
:103A6000CF91CFBFCF91189520912401222369F3E4
:103A700010912201112339F534303AF130932201AB
:103A800020931E0110911F013BE0311B30931F0159
:103A90001CC0009122010130B4F40AE5309100010C
:103AA00034FD14C000930001C2E1D1E013C005272A
:103AB00010E000C000000BB91AC0052710E0221F5B
:103AC0001DC010E021C04AE502C032ED432FC4E121
:103AD000D0E032E01AB114615C9A0BB11AB954E12A
:103AE00020E865E320FF05270BB9279517951C3FB4
:103AF000F0F66695B8F7B1F720FF05270BB92795C3
:103B000017951C3FD0F62795179517FF052700003E
:103B10001C3F0BB9B0F629913A9519F70B7E10911D
:103B20002301110FC651D0400BB911F010931D01A4
:103B300011E01CBB00611AB11B7E402F4B7E54E08C
:103B40005A95F1F70BB91AB94BB97FCF18B8F89459
:103B50001DBA1092690081E085BF15BEE091100189
:103B6000F0911101099588E10FB6F89480936000F7
:103B7000109260000FBE429A04B601FEFBC114BE53
:103B800081E085BF82E085BF3299F4C180916900F0
:103B9000826080936900E89A549A20E005C0A89555
:103BA00080EA9FE00197F1F72150C9F75498789483
:103BB00090912201935097FD5CC180911F010CE010
:103BC00010E0081B11090A5D1E4F80911E018D3205
:103BD00009F0D8C0983009F04AC183EC80931201F3
:103BE0008AE58093000110920A01D8013C91832F4D
:103BF000807611962C911197882309F44CC086E0A9
:103C000091E090932101809320012330F9F41396E1
:103C10009C91139714968C91149712962C912033A3
:103C200039F48370E82FF0E0EE5FFE4F80810AC028
:103C3000203A11F4A0D106C0203C19F4F8016581A6
:103C4000A2D180E08093090194E08EC02530F9F084
:103C5000822F84508630E8F4D80112968D919C9181
:103C6000139790930C0180930B01293091F01696D5
:103C70009C91169790930D0115968C91827080936C
:103C80000E0120930F0137FD6AC02FEF69C091E04C
:103C90006BC090E069C0F801828110921B01222361
:103CA00031F410921C012BE131E092E053C0253039
:103CB00019F4809323014BC02630C9F5D80113961F
:103CC0008C91813019F486E998E304C0823041F484
:103CD00088EA98E3909321018093200192E123C028
:103CE000833001F5F8018281882341F488E698E366
:103CF000909321018093200194E015C0813041F41C
:103D00008CE698E390932101809320019CE10BC005
:103D1000823041F488E898E3909321018093200158
:103D20009EE001C090E080E480930A011DC028302D
:103D300019F425E231E009C0293019F480932501F6
:103D400006C02A3021F42BE131E091E003C02BE1E1
:103D500031E090E0309321012093200105C0292F0C
:103D600080E880930A010BC0D80117968C911797B1
:103D7000882321F416962C91291708F0292F2093D7
:103D8000010175C080910A0187FF71C080910D010A
:103D9000F92E891708F4F82E8F1980930D01EE245F
:103DA000882311F4EE24E39480910F01873010F002
:103DB000E80114C050910E01E0910B01F0910C014B
:103DC00040E04AC080910B0190910C0101969093C4
:103DD0000C0180930B0101976991D5D0FE01E01B86
:103DE000EF1580F340C0CF018F779070892B49F495
:103DF000F89483E080935700E895789407B600FC28
:103E0000FDCF4E5FF894D8018D919D918D0121E0F9
:103E10000C0120935700E895112478949F012E5FA0
:103E20003F4FC9018F779070892B31F0EE2099F0C8
:103E30004F1588F0552379F0F89485E0809357006A
:103E4000E895789407B600FCFDCFF89481E1809363
:103E50005700E8957894F9014F1508F4C4CFF09312
:103E60000C01E0930B01EE2011F010920101109271
:103E700022018091000184FF71C0809101018F3F78
:103E800009F46CC0182F893008F018E0811B80936A
:103E900001018091120198E8892780931201112372
:103EA00009F44AC080910A0187FF2AC080910D0160
:103EB000811708F4182F811B80930D0100910F01C9
:103EC000C3E1D1E015C0E0910B01F0910C01073086
:103ED00018F0CF0150D001C0849188832196809141
:103EE0000B0190910C01019690930C0180930B01B2
:103EF000812F90E08D5E9E4FC817D90721F71AC019
:103F0000E0912001F091210186FF09C0912FA3E1EA
:103F1000B1E084918D9331969150D9F707C0912FDC
:103F2000A3E1B1E081918D939150E1F7F0932101EC
:103F3000E0932001193060F483E191E0612FEEDC21
:103F4000612F6C5F6C3041F08FEF8093010104C0F2
:103F50008FEF809301016EE16093000194E189B1DC
:103F6000847131F49150D9F71092230110921D0100
:103F7000329B1ECEEBDDF999FECF92BD81BDF89A42
:103F8000992780B50895262FF999FECF1FBA92BDC3
:103F900081BD20BD0FB6F894FA9AF99A0FBE01962A
:063FA0000895F894FFCF24
:063FA6005AFF1E94060004
:0400000300003800C1
:00000001FF
